{
  "contractName": "OnChainWallet",
  "abi": [
    {
      "constant": true,
      "inputs": [
        {
          "name": "",
          "type": "uint256"
        }
      ],
      "name": "owners",
      "outputs": [
        {
          "name": "",
          "type": "address"
        }
      ],
      "payable": false,
      "stateMutability": "view",
      "type": "function"
    },
    {
      "constant": true,
      "inputs": [],
      "name": "approvementNr",
      "outputs": [
        {
          "name": "",
          "type": "int256"
        }
      ],
      "payable": false,
      "stateMutability": "view",
      "type": "function"
    },
    {
      "constant": true,
      "inputs": [],
      "name": "version",
      "outputs": [
        {
          "name": "",
          "type": "string"
        }
      ],
      "payable": false,
      "stateMutability": "view",
      "type": "function"
    },
    {
      "constant": true,
      "inputs": [],
      "name": "requestNum",
      "outputs": [
        {
          "name": "",
          "type": "uint256"
        }
      ],
      "payable": false,
      "stateMutability": "view",
      "type": "function"
    },
    {
      "inputs": [
        {
          "name": "_approvementNr",
          "type": "int256"
        }
      ],
      "payable": false,
      "stateMutability": "nonpayable",
      "type": "constructor"
    },
    {
      "payable": true,
      "stateMutability": "payable",
      "type": "fallback"
    },
    {
      "constant": true,
      "inputs": [
        {
          "name": "_addressIsOwner",
          "type": "address"
        }
      ],
      "name": "isOwner",
      "outputs": [
        {
          "name": "",
          "type": "bool"
        }
      ],
      "payable": false,
      "stateMutability": "view",
      "type": "function"
    },
    {
      "constant": true,
      "inputs": [],
      "name": "balanceOf",
      "outputs": [
        {
          "name": "",
          "type": "uint256"
        }
      ],
      "payable": false,
      "stateMutability": "view",
      "type": "function"
    },
    {
      "constant": false,
      "inputs": [
        {
          "name": "newOwner",
          "type": "address"
        }
      ],
      "name": "addOwner",
      "outputs": [],
      "payable": false,
      "stateMutability": "nonpayable",
      "type": "function"
    },
    {
      "constant": false,
      "inputs": [
        {
          "name": "newOwner",
          "type": "address"
        }
      ],
      "name": "deleteOwner",
      "outputs": [],
      "payable": false,
      "stateMutability": "nonpayable",
      "type": "function"
    },
    {
      "constant": false,
      "inputs": [
        {
          "name": "_newApproverNr",
          "type": "int256"
        }
      ],
      "name": "setRequiredApproverNr",
      "outputs": [],
      "payable": false,
      "stateMutability": "nonpayable",
      "type": "function"
    },
    {
      "constant": false,
      "inputs": [
        {
          "name": "requestNr",
          "type": "uint256"
        }
      ],
      "name": "getRequestInfo",
      "outputs": [
        {
          "name": "toAddress",
          "type": "address"
        },
        {
          "name": "amount",
          "type": "uint256"
        },
        {
          "name": "assetType",
          "type": "string"
        },
        {
          "name": "approvementNeeded",
          "type": "int256"
        },
        {
          "name": "requestStatus",
          "type": "uint256"
        }
      ],
      "payable": false,
      "stateMutability": "nonpayable",
      "type": "function"
    },
    {
      "constant": false,
      "inputs": [
        {
          "name": "to",
          "type": "address"
        },
        {
          "name": "value",
          "type": "uint256"
        }
      ],
      "name": "transferEtherRequest",
      "outputs": [
        {
          "name": "",
          "type": "uint256"
        }
      ],
      "payable": false,
      "stateMutability": "nonpayable",
      "type": "function"
    },
    {
      "constant": false,
      "inputs": [
        {
          "name": "requestNr",
          "type": "uint256"
        }
      ],
      "name": "etherRequestApprove",
      "outputs": [],
      "payable": false,
      "stateMutability": "nonpayable",
      "type": "function"
    }
  ],
  "bytecode": "0x60806040526040805190810160405280600581526020017f302e302e310000000000000000000000000000000000000000000000000000008152506000908051906020019062000051929190620000ff565b503480156200005f57600080fd5b5060405160208062001360833981018060405281019080805190602001909291905050508060018190555060023390806001815401808255809150509060018203906000526020600020016000909192909190916101000a81548173ffffffffffffffffffffffffffffffffffffffff021916908373ffffffffffffffffffffffffffffffffffffffff16021790555050600060048190555050620001ae565b828054600181600116156101000203166002900490600052602060002090601f016020900481019282601f106200014257805160ff191683800117855562000173565b8280016001018555821562000173579182015b828111156200017257825182559160200191906001019062000155565b5b50905062000182919062000186565b5090565b620001ab91905b80821115620001a75760008160009055506001016200018d565b5090565b90565b6111a280620001be6000396000f3006080604052600436106100ba576000357c0100000000000000000000000000000000000000000000000000000000900463ffffffff168063025e7c27146100bc57806305ee4013146101295780630b8160451461018a5780632b68ad88146102785780632f54bf6e146102a357806354fd4d50146102fe578063684c8d6a1461038e5780637065cb48146103bb578063722713f7146103fe57806374658b1114610429578063cd5c4c7014610456578063e09974b914610499575b005b3480156100c857600080fd5b506100e7600480360381019080803590602001909291905050506104c4565b604051808273ffffffffffffffffffffffffffffffffffffffff1673ffffffffffffffffffffffffffffffffffffffff16815260200191505060405180910390f35b34801561013557600080fd5b50610174600480360381019080803573ffffffffffffffffffffffffffffffffffffffff16906020019092919080359060200190929190505050610502565b6040518082815260200191505060405180910390f35b34801561019657600080fd5b506101b5600480360381019080803590602001909291905050506107cf565b604051808673ffffffffffffffffffffffffffffffffffffffff1673ffffffffffffffffffffffffffffffffffffffff16815260200185815260200180602001848152602001838152602001828103825285818151815260200191508051906020019080838360005b8381101561023957808201518184015260208101905061021e565b50505050905090810190601f1680156102665780820380516001836020036101000a031916815260200191505b50965050505050505060405180910390f35b34801561028457600080fd5b5061028d61092d565b6040518082815260200191505060405180910390f35b3480156102af57600080fd5b506102e4600480360381019080803573ffffffffffffffffffffffffffffffffffffffff169060200190929190505050610933565b604051808215151515815260200191505060405180910390f35b34801561030a57600080fd5b506103136109d6565b6040518080602001828103825283818151815260200191508051906020019080838360005b83811015610353578082015181840152602081019050610338565b50505050905090810190601f1680156103805780820380516001836020036101000a031916815260200191505b509250505060405180910390f35b34801561039a57600080fd5b506103b960048036038101908080359060200190929190505050610a74565b005b3480156103c757600080fd5b506103fc600480360381019080803573ffffffffffffffffffffffffffffffffffffffff169060200190929190505050610d8b565b005b34801561040a57600080fd5b50610413610e12565b6040518082815260200191505060405180910390f35b34801561043557600080fd5b5061045460048036038101908080359060200190929190505050610e31565b005b34801561046257600080fd5b50610497600480360381019080803573ffffffffffffffffffffffffffffffffffffffff169060200190929190505050610e68565b005b3480156104a557600080fd5b506104ae610fa6565b6040518082815260200191505060405180910390f35b6002818154811015156104d357fe5b906000526020600020016000915054906101000a900473ffffffffffffffffffffffffffffffffffffffff1681565b600061050c610fac565b600061051733610933565b90506001151581151514151561052957fe5b833073ffffffffffffffffffffffffffffffffffffffff16311015151561054f57600080fd5b6001805414156105a9578473ffffffffffffffffffffffffffffffffffffffff166108fc859081150290604051600060405180830381858888f1935050505015801561059f573d6000803e3d6000fd5b50600092506107c7565b60c0604051908101604052808673ffffffffffffffffffffffffffffffffffffffff1681526020018581526020016040805190810160405280600381526020017f4554480000000000000000000000000000000000000000000000000000000000815250815260200160015481526020016000600181111561062757fe5b8152602001600060405190808252806020026020018201604052801561065c5781602001602082028038833980820191505090505b5081525091506001600454016004819055508160036000600454815260200190815260200160002060008201518160000160006101000a81548173ffffffffffffffffffffffffffffffffffffffff021916908373ffffffffffffffffffffffffffffffffffffffff1602179055506020820151816001015560408201518160020190805190602001906106f1929190611004565b506060820151816003015560808201518160040160006101000a81548160ff0219169083600181111561072057fe5b021790555060a0820151816005019080519060200190610741929190611084565b509050506003600060045481526020019081526020016000206005013390806001815401808255809150509060018203906000526020600020016000909192909190916101000a81548173ffffffffffffffffffffffffffffffffffffffff021916908373ffffffffffffffffffffffffffffffffffffffff1602179055505060045492505b505092915050565b60008060606000806003600087815260200190815260200160002060000160009054906101000a900473ffffffffffffffffffffffffffffffffffffffff16945060036000878152602001908152602001600020600101549350600360008781526020019081526020016000206002018054600181600116156101000203166002900480601f0160208091040260200160405190810160405280929190818152602001828054600181600116156101000203166002900480156108d35780601f106108a8576101008083540402835291602001916108d3565b820191906000526020600020905b8154815290600101906020018083116108b657829003601f168201915b50505050509250600360008781526020019081526020016000206003015491506003600087815260200190815260200160002060040160009054906101000a900460ff16600181111561092257fe5b905091939590929450565b60015481565b6000806000809150600090505b6002805490508110156109cc573373ffffffffffffffffffffffffffffffffffffffff1660028281548110151561097357fe5b9060005260206000200160009054906101000a900473ffffffffffffffffffffffffffffffffffffffff1673ffffffffffffffffffffffffffffffffffffffff1614156109bf57600191505b8080600101915050610940565b8192505050919050565b60008054600181600116156101000203166002900480601f016020809104026020016040519081016040528092919081815260200182805460018160011615610100020316600290048015610a6c5780601f10610a4157610100808354040283529160200191610a6c565b820191906000526020600020905b815481529060010190602001808311610a4f57829003601f168201915b505050505081565b610a7c610fac565b6000610a8733610933565b905060011515811515141515610a9957fe5b6003600084815260200190815260200160002060c060405190810160405290816000820160009054906101000a900473ffffffffffffffffffffffffffffffffffffffff1673ffffffffffffffffffffffffffffffffffffffff1673ffffffffffffffffffffffffffffffffffffffff16815260200160018201548152602001600282018054600181600116156101000203166002900480601f016020809104026020016040519081016040528092919081815260200182805460018160011615610100020316600290048015610bb15780601f10610b8657610100808354040283529160200191610bb1565b820191906000526020600020905b815481529060010190602001808311610b9457829003601f168201915b50505050508152602001600382015481526020016004820160009054906101000a900460ff166001811115610be257fe5b6001811115610bed57fe5b815260200160058201805480602002602001604051908101604052809291908181526020018280548015610c7657602002820191906000526020600020905b8160009054906101000a900473ffffffffffffffffffffffffffffffffffffffff1673ffffffffffffffffffffffffffffffffffffffff1681526020019060010190808311610c2c575b5050505050815250509150600180540382606001511215610cca5760016003600085815260200190815260200160002060030154016003600085815260200190815260200160002060030181905550610d86565b816000015173ffffffffffffffffffffffffffffffffffffffff166108fc83602001519081150290604051600060405180830381858888f19350505050158015610d18573d6000803e3d6000fd5b506001600360008581526020019081526020016000206003015401600360008581526020019081526020016000206003018190555060016003600085815260200190815260200160002060040160006101000a81548160ff02191690836001811115610d8057fe5b02179055505b505050565b6000610d9633610933565b905060011515811515141515610da857fe5b60028290806001815401808255809150509060018203906000526020600020016000909192909190916101000a81548173ffffffffffffffffffffffffffffffffffffffff021916908373ffffffffffffffffffffffffffffffffffffffff160217905550505050565b60003073ffffffffffffffffffffffffffffffffffffffff1631905090565b6000610e3c33610933565b905060011515811515141515610e4e57fe5b603282121515610e5d57600080fd5b816001819055505050565b6000806000610e7633610933565b905060011515811515141515610e8857fe5b7fffffffffffffffffffffffffffffffffffffffffffffffffffffffffffffffff9250600091505b600280549050821015610f3b573373ffffffffffffffffffffffffffffffffffffffff16600283815481101515610ee357fe5b9060005260206000200160009054906101000a900473ffffffffffffffffffffffffffffffffffffffff1673ffffffffffffffffffffffffffffffffffffffff161415610f2e578192505b8180600101925050610eb0565b7fffffffffffffffffffffffffffffffffffffffffffffffffffffffffffffffff831315610fa057600283815481101515610f7257fe5b9060005260206000200160006101000a81549073ffffffffffffffffffffffffffffffffffffffff02191690555b50505050565b60045481565b60c060405190810160405280600073ffffffffffffffffffffffffffffffffffffffff16815260200160008152602001606081526020016000815260200160006001811115610ff757fe5b8152602001606081525090565b828054600181600116156101000203166002900490600052602060002090601f016020900481019282601f1061104557805160ff1916838001178555611073565b82800160010185558215611073579182015b82811115611072578251825591602001919060010190611057565b5b509050611080919061110e565b5090565b8280548282559060005260206000209081019282156110fd579160200282015b828111156110fc5782518260006101000a81548173ffffffffffffffffffffffffffffffffffffffff021916908373ffffffffffffffffffffffffffffffffffffffff160217905550916020019190600101906110a4565b5b50905061110a9190611133565b5090565b61113091905b8082111561112c576000816000905550600101611114565b5090565b90565b61117391905b8082111561116f57600081816101000a81549073ffffffffffffffffffffffffffffffffffffffff021916905550600101611139565b5090565b905600a165627a7a723058208973ae107120bbc171255807b78283a9e959041f17973c8439fc0651f3d6682d0029",
  "source": "pragma solidity ^0.4.23;\n\ncontract OnChainWallet {\n\n    string public version = \"0.0.1\";\n    int public approvementNr;\n    address[] public owners;\n    mapping(uint => Request) requests;\n    uint public requestNum;\n\n    enum RequestStatus {PENDING, TRANSFERED}\n\n    struct Request {\n        address toAddress;\n        uint amount;\n        string assetType;\n        int approvementNeeded;\n        RequestStatus requestStatus;\n        address[] voted;\n    }\n\n    constructor(int _approvementNr){\n        approvementNr = _approvementNr;\n        owners.push(msg.sender);\n        requestNum = 0;\n    }\n    \n    // MODIFIERS\n    modifier currentIsOwner() {\n        bool containsCurrent = isOwner(msg.sender);\n        assert(containsCurrent == true);\n        _;\n    }\n\n    // FALLBACK\n    function () public payable {}  \n\n    // FUNCTIONS\n    // checking if the address is an owner\n    function isOwner(address _addressIsOwner) view returns (bool){\n        bool containsCurrent = false;\n        for (uint i = 0; i < owners.length; i++ ){\n            if (owners[i] == msg.sender){\n                containsCurrent = true;\n            } \n        }\n        return containsCurrent;\n    }\n\n    // getting balance of the contract\n    function balanceOf() view returns (uint){\n        return address(this).balance;\n    }\n\n    // adding an owner account\n    function addOwner(address newOwner) currentIsOwner() {\n        owners.push(newOwner);\n    }\n\n    // deleting an owner account\n    function deleteOwner(address newOwner) currentIsOwner() {\n        int indexToDelete = -1;\n        for (uint i = 0; i < owners.length; i++ ){\n            if (owners[i] == msg.sender){\n                indexToDelete = int(i);\n            }\n        }\n        if (indexToDelete > -1) {\n            delete owners[uint(indexToDelete)];\n        }\n    }\n\n    // setting the required approvement limit\n    function setRequiredApproverNr (int _newApproverNr) currentIsOwner()  public {\n        require (_newApproverNr < 50);  \n        approvementNr = _newApproverNr;\n    }\n\n    // TRANSFERRING FUNCTIONS\n    // getting informaton regarding a request\n    function getRequestInfo(uint requestNr) returns (address toAddress,uint amount,string assetType, int approvementNeeded, uint requestStatus) {\n        toAddress = requests[requestNr].toAddress;\n        amount = requests[requestNr].amount;\n        assetType = requests[requestNr].assetType;\n        approvementNeeded = requests[requestNr].approvementNeeded;\n        requestStatus = uint(requests[requestNr].requestStatus);\n    }\n\n    // start an ether transfer or a tranfer request\n    function transferEtherRequest(address to, uint value) currentIsOwner public returns (uint) {\n        require(address(this).balance >= value);\n        // transfer ether\n        if (approvementNr == 1) {\n            to.transfer(value);\n            return 0;\n        }\n        // create request\n        else {\n            Request memory request = Request(\n                to,\n                value,\n                \"ETH\",\n                approvementNr,\n                RequestStatus.PENDING,\n                new address[](0)\n            );\n            requestNum = requestNum + 1;\n            requests[requestNum] = request;\n            requests[requestNum].voted.push(msg.sender);\n            return requestNum;\n        }\n    }\n\n    // adding approvement to a  request\n    function etherRequestApprove(uint requestNr) currentIsOwner public {\n            Request memory request = requests[requestNr];\n            if (request.approvementNeeded < approvementNr - 1) {\n                requests[requestNr].approvementNeeded = requests[requestNr].approvementNeeded + 1;\n            }\n            else {\n                request.toAddress.transfer(request.amount);\n                requests[requestNr].approvementNeeded =  requests[requestNr].approvementNeeded + 1; \n                requests[requestNr].requestStatus = RequestStatus.TRANSFERED;\n            }\n\n    }\n\n}",
  "sourcePath": "/home/super/Eth/onchainwallet/contracts/OnChainWallet.sol",
  "compiler": {
    "name": "solc",
    "version": "0.4.24+commit.e67f0147.Emscripten.clang"
  },
  "schemaVersion": "2.0.0",
  "updatedAt": "2018-11-19T18:04:25.463Z"
}