{
  "contractName": "OnChainWallet",
  "abi": [
    {
      "constant": true,
      "inputs": [
        {
          "name": "",
          "type": "uint256"
        }
      ],
      "name": "owners",
      "outputs": [
        {
          "name": "",
          "type": "address"
        }
      ],
      "payable": false,
      "stateMutability": "view",
      "type": "function"
    },
    {
      "constant": true,
      "inputs": [],
      "name": "approvementNr",
      "outputs": [
        {
          "name": "",
          "type": "int256"
        }
      ],
      "payable": false,
      "stateMutability": "view",
      "type": "function"
    },
    {
      "constant": true,
      "inputs": [],
      "name": "version",
      "outputs": [
        {
          "name": "",
          "type": "string"
        }
      ],
      "payable": false,
      "stateMutability": "view",
      "type": "function"
    },
    {
      "constant": true,
      "inputs": [],
      "name": "requestNum",
      "outputs": [
        {
          "name": "",
          "type": "uint256"
        }
      ],
      "payable": false,
      "stateMutability": "view",
      "type": "function"
    },
    {
      "inputs": [
        {
          "name": "_approvementNr",
          "type": "int256"
        }
      ],
      "payable": false,
      "stateMutability": "nonpayable",
      "type": "constructor"
    },
    {
      "payable": true,
      "stateMutability": "payable",
      "type": "fallback"
    },
    {
      "constant": true,
      "inputs": [
        {
          "name": "_addressIsOwner",
          "type": "address"
        }
      ],
      "name": "isOwner",
      "outputs": [
        {
          "name": "",
          "type": "bool"
        }
      ],
      "payable": false,
      "stateMutability": "view",
      "type": "function"
    },
    {
      "constant": true,
      "inputs": [],
      "name": "balanceOf",
      "outputs": [
        {
          "name": "",
          "type": "uint256"
        }
      ],
      "payable": false,
      "stateMutability": "view",
      "type": "function"
    },
    {
      "constant": false,
      "inputs": [
        {
          "name": "newOwner",
          "type": "address"
        }
      ],
      "name": "addOwner",
      "outputs": [],
      "payable": false,
      "stateMutability": "nonpayable",
      "type": "function"
    },
    {
      "constant": false,
      "inputs": [
        {
          "name": "newOwner",
          "type": "address"
        }
      ],
      "name": "deleteOwner",
      "outputs": [],
      "payable": false,
      "stateMutability": "nonpayable",
      "type": "function"
    },
    {
      "constant": false,
      "inputs": [
        {
          "name": "_newApproverNr",
          "type": "int256"
        }
      ],
      "name": "setRequiredApproverNr",
      "outputs": [],
      "payable": false,
      "stateMutability": "nonpayable",
      "type": "function"
    },
    {
      "constant": false,
      "inputs": [
        {
          "name": "requestNr",
          "type": "uint256"
        }
      ],
      "name": "getRequestInfo",
      "outputs": [
        {
          "name": "toAddress",
          "type": "address"
        },
        {
          "name": "amount",
          "type": "uint256"
        },
        {
          "name": "assetType",
          "type": "string"
        },
        {
          "name": "approvementNeeded",
          "type": "int256"
        },
        {
          "name": "requestStatus",
          "type": "uint256"
        }
      ],
      "payable": false,
      "stateMutability": "nonpayable",
      "type": "function"
    },
    {
      "constant": false,
      "inputs": [
        {
          "name": "to",
          "type": "address"
        },
        {
          "name": "value",
          "type": "uint256"
        }
      ],
      "name": "transferEtherRequest",
      "outputs": [
        {
          "name": "",
          "type": "uint256"
        }
      ],
      "payable": false,
      "stateMutability": "nonpayable",
      "type": "function"
    },
    {
      "constant": false,
      "inputs": [
        {
          "name": "requestNr",
          "type": "uint256"
        }
      ],
      "name": "etherRequestApprove",
      "outputs": [],
      "payable": false,
      "stateMutability": "nonpayable",
      "type": "function"
    }
  ],
  "bytecode": "0x60806040526040805190810160405280600581526020017f302e302e310000000000000000000000000000000000000000000000000000008152506000908051906020019061004f9291906100fa565b5034801561005c57600080fd5b5060405160208061111f833981018060405281019080805190602001909291905050508060018190555060023390806001815401808255809150509060018203906000526020600020016000909192909190916101000a81548173ffffffffffffffffffffffffffffffffffffffff021916908373ffffffffffffffffffffffffffffffffffffffff1602179055505060006004819055505061019f565b828054600181600116156101000203166002900490600052602060002090601f016020900481019282601f1061013b57805160ff1916838001178555610169565b82800160010185558215610169579182015b8281111561016857825182559160200191906001019061014d565b5b509050610176919061017a565b5090565b61019c91905b80821115610198576000816000905550600101610180565b5090565b90565b610f71806101ae6000396000f3006080604052600436106100ba576000357c0100000000000000000000000000000000000000000000000000000000900463ffffffff168063025e7c27146100bc57806305ee4013146101295780630b8160451461018a5780632b68ad88146102785780632f54bf6e146102a357806354fd4d50146102fe578063684c8d6a1461038e5780637065cb48146103bb578063722713f7146103fe57806374658b1114610429578063cd5c4c7014610456578063e09974b914610499575b005b3480156100c857600080fd5b506100e7600480360381019080803590602001909291905050506104c4565b604051808273ffffffffffffffffffffffffffffffffffffffff1673ffffffffffffffffffffffffffffffffffffffff16815260200191505060405180910390f35b34801561013557600080fd5b50610174600480360381019080803573ffffffffffffffffffffffffffffffffffffffff16906020019092919080359060200190929190505050610502565b6040518082815260200191505060405180910390f35b34801561019657600080fd5b506101b560048036038101908080359060200190929190505050610700565b604051808673ffffffffffffffffffffffffffffffffffffffff1673ffffffffffffffffffffffffffffffffffffffff16815260200185815260200180602001848152602001838152602001828103825285818151815260200191508051906020019080838360005b8381101561023957808201518184015260208101905061021e565b50505050905090810190601f1680156102665780820380516001836020036101000a031916815260200191505b50965050505050505060405180910390f35b34801561028457600080fd5b5061028d61085e565b6040518082815260200191505060405180910390f35b3480156102af57600080fd5b506102e4600480360381019080803573ffffffffffffffffffffffffffffffffffffffff169060200190929190505050610864565b604051808215151515815260200191505060405180910390f35b34801561030a57600080fd5b50610313610907565b6040518080602001828103825283818151815260200191508051906020019080838360005b83811015610353578082015181840152602081019050610338565b50505050905090810190601f1680156103805780820380516001836020036101000a031916815260200191505b509250505060405180910390f35b34801561039a57600080fd5b506103b9600480360381019080803590602001909291905050506109a5565b005b3480156103c757600080fd5b506103fc600480360381019080803573ffffffffffffffffffffffffffffffffffffffff169060200190929190505050610c2e565b005b34801561040a57600080fd5b50610413610cb5565b6040518082815260200191505060405180910390f35b34801561043557600080fd5b5061045460048036038101908080359060200190929190505050610cd4565b005b34801561046257600080fd5b50610497600480360381019080803573ffffffffffffffffffffffffffffffffffffffff169060200190929190505050610d0b565b005b3480156104a557600080fd5b506104ae610e49565b6040518082815260200191505060405180910390f35b6002818154811015156104d357fe5b906000526020600020016000915054906101000a900473ffffffffffffffffffffffffffffffffffffffff1681565b600061050c610e4f565b600061051733610864565b90506001151581151514151561052957fe5b833073ffffffffffffffffffffffffffffffffffffffff16311015151561054f57600080fd5b6001805414156105a9578473ffffffffffffffffffffffffffffffffffffffff166108fc859081150290604051600060405180830381858888f1935050505015801561059f573d6000803e3d6000fd5b50600092506106f8565b60a0604051908101604052808673ffffffffffffffffffffffffffffffffffffffff1681526020018581526020016040805190810160405280600381526020017f4554480000000000000000000000000000000000000000000000000000000000815250815260200160015481526020016000600181111561062757fe5b81525091506001600454016004819055508160036000600454815260200190815260200160002060008201518160000160006101000a81548173ffffffffffffffffffffffffffffffffffffffff021916908373ffffffffffffffffffffffffffffffffffffffff1602179055506020820151816001015560408201518160020190805190602001906106bb929190610ea0565b506060820151816003015560808201518160040160006101000a81548160ff021916908360018111156106ea57fe5b021790555090505060045492505b505092915050565b60008060606000806003600087815260200190815260200160002060000160009054906101000a900473ffffffffffffffffffffffffffffffffffffffff16945060036000878152602001908152602001600020600101549350600360008781526020019081526020016000206002018054600181600116156101000203166002900480601f0160208091040260200160405190810160405280929190818152602001828054600181600116156101000203166002900480156108045780601f106107d957610100808354040283529160200191610804565b820191906000526020600020905b8154815290600101906020018083116107e757829003601f168201915b50505050509250600360008781526020019081526020016000206003015491506003600087815260200190815260200160002060040160009054906101000a900460ff16600181111561085357fe5b905091939590929450565b60015481565b6000806000809150600090505b6002805490508110156108fd573373ffffffffffffffffffffffffffffffffffffffff166002828154811015156108a457fe5b9060005260206000200160009054906101000a900473ffffffffffffffffffffffffffffffffffffffff1673ffffffffffffffffffffffffffffffffffffffff1614156108f057600191505b8080600101915050610871565b8192505050919050565b60008054600181600116156101000203166002900480601f01602080910402602001604051908101604052809291908181526020018280546001816001161561010002031660029004801561099d5780601f106109725761010080835404028352916020019161099d565b820191906000526020600020905b81548152906001019060200180831161098057829003601f168201915b505050505081565b6109ad610e4f565b60006109b833610864565b9050600115158115151415156109ca57fe5b6003600084815260200190815260200160002060a060405190810160405290816000820160009054906101000a900473ffffffffffffffffffffffffffffffffffffffff1673ffffffffffffffffffffffffffffffffffffffff1673ffffffffffffffffffffffffffffffffffffffff16815260200160018201548152602001600282018054600181600116156101000203166002900480601f016020809104026020016040519081016040528092919081815260200182805460018160011615610100020316600290048015610ae25780601f10610ab757610100808354040283529160200191610ae2565b820191906000526020600020905b815481529060010190602001808311610ac557829003601f168201915b50505050508152602001600382015481526020016004820160009054906101000a900460ff166001811115610b1357fe5b6001811115610b1e57fe5b815250509150600180540382606001511215610b6d5760016003600085815260200190815260200160002060030154016003600085815260200190815260200160002060030181905550610c29565b816000015173ffffffffffffffffffffffffffffffffffffffff166108fc83602001519081150290604051600060405180830381858888f19350505050158015610bbb573d6000803e3d6000fd5b506001600360008581526020019081526020016000206003015401600360008581526020019081526020016000206003018190555060016003600085815260200190815260200160002060040160006101000a81548160ff02191690836001811115610c2357fe5b02179055505b505050565b6000610c3933610864565b905060011515811515141515610c4b57fe5b60028290806001815401808255809150509060018203906000526020600020016000909192909190916101000a81548173ffffffffffffffffffffffffffffffffffffffff021916908373ffffffffffffffffffffffffffffffffffffffff160217905550505050565b60003073ffffffffffffffffffffffffffffffffffffffff1631905090565b6000610cdf33610864565b905060011515811515141515610cf157fe5b603282121515610d0057600080fd5b816001819055505050565b6000806000610d1933610864565b905060011515811515141515610d2b57fe5b7fffffffffffffffffffffffffffffffffffffffffffffffffffffffffffffffff9250600091505b600280549050821015610dde573373ffffffffffffffffffffffffffffffffffffffff16600283815481101515610d8657fe5b9060005260206000200160009054906101000a900473ffffffffffffffffffffffffffffffffffffffff1673ffffffffffffffffffffffffffffffffffffffff161415610dd1578192505b8180600101925050610d53565b7fffffffffffffffffffffffffffffffffffffffffffffffffffffffffffffffff831315610e4357600283815481101515610e1557fe5b9060005260206000200160006101000a81549073ffffffffffffffffffffffffffffffffffffffff02191690555b50505050565b60045481565b60a060405190810160405280600073ffffffffffffffffffffffffffffffffffffffff16815260200160008152602001606081526020016000815260200160006001811115610e9a57fe5b81525090565b828054600181600116156101000203166002900490600052602060002090601f016020900481019282601f10610ee157805160ff1916838001178555610f0f565b82800160010185558215610f0f579182015b82811115610f0e578251825591602001919060010190610ef3565b5b509050610f1c9190610f20565b5090565b610f4291905b80821115610f3e576000816000905550600101610f26565b5090565b905600a165627a7a72305820aa8baaa001227cc3da2e6a86e6996aeee04ff2c5d74939a9dbc90d91eaef282d0029",
  "source": "pragma solidity ^0.4.23;\n\ncontract OnChainWallet {\n\n    string public version = \"0.0.1\";\n    int public approvementNr;\n    address[] public owners;\n    mapping(uint => Request) requests;\n    uint public requestNum;\n\n    enum RequestStatus {PENDING, TRANSFERED}\n\n    struct Request {\n        address toAddress;\n        uint amount;\n        string assetType;\n        int approvementNeeded;\n        RequestStatus requestStatus;\n    }\n\n    constructor(int _approvementNr){\n        approvementNr = _approvementNr;\n        owners.push(msg.sender);\n        requestNum = 0;\n    }\n    \n    // MODIFIERS\n    modifier currentIsOwner() {\n        bool containsCurrent = isOwner(msg.sender);\n        assert(containsCurrent == true);\n        _;\n    }\n\n    // FALLBACK\n    function () public payable {}  \n\n    // FUNCTIONS\n    // checking if the address is an owner\n    function isOwner(address _addressIsOwner) view returns (bool){\n        bool containsCurrent = false;\n        for (uint i = 0; i < owners.length; i++ ){\n            if (owners[i] == msg.sender){\n                containsCurrent = true;\n            } \n        }\n        return containsCurrent;\n    }\n\n    // getting balance of the contract\n    function balanceOf() view returns (uint){\n        return address(this).balance;\n    }\n\n    // adding an owner account\n    function addOwner(address newOwner) currentIsOwner() {\n        owners.push(newOwner);\n    }\n\n    // deleting an owner account\n    function deleteOwner(address newOwner) currentIsOwner() {\n        int indexToDelete = -1;\n        for (uint i = 0; i < owners.length; i++ ){\n            if (owners[i] == msg.sender){\n                indexToDelete = int(i);\n            }\n        }\n        if (indexToDelete > -1) {\n            delete owners[uint(indexToDelete)];\n        }\n    }\n\n    // setting the required approvement limit\n    function setRequiredApproverNr (int _newApproverNr) currentIsOwner()  public {\n        require (_newApproverNr < 50);  \n        approvementNr = _newApproverNr;\n    }\n\n    // TRANSFERRING FUNCTIONS\n    // getting informaton regarding a request\n    function getRequestInfo(uint requestNr) returns (address toAddress,uint amount,string assetType, int approvementNeeded, uint requestStatus) {\n        toAddress = requests[requestNr].toAddress;\n        amount = requests[requestNr].amount;\n        assetType = requests[requestNr].assetType;\n        approvementNeeded = requests[requestNr].approvementNeeded;\n        requestStatus = uint(requests[requestNr].requestStatus);\n    }\n\n    // start an ether transfer or a tranfer request\n    function transferEtherRequest(address to, uint value) currentIsOwner public returns (uint) {\n        require(address(this).balance >= value);\n        // transfer ether\n        if (approvementNr == 1) {\n            to.transfer(value);\n            return 0;\n        }\n        // create request\n        else {\n            Request memory request = Request(\n                to,\n                value,\n                \"ETH\",\n                approvementNr,\n                RequestStatus.PENDING\n            );\n            requestNum = requestNum + 1;\n            requests[requestNum] = request;\n            return requestNum;\n        }\n    }\n\n    // adding approvement to a  request\n    function etherRequestApprove(uint requestNr) currentIsOwner public {\n            Request memory request = requests[requestNr];\n            if (request.approvementNeeded < approvementNr - 1) {\n                requests[requestNr].approvementNeeded = requests[requestNr].approvementNeeded + 1;\n            }\n            else {\n                request.toAddress.transfer(request.amount);\n                requests[requestNr].approvementNeeded =  requests[requestNr].approvementNeeded + 1; \n                requests[requestNr].requestStatus = RequestStatus.TRANSFERED;\n            }\n\n    }\n\n}",
  "sourcePath": "/home/super/Eth/onchainwallet/contracts/OnChainWallet.sol",
  "compiler": {
    "name": "solc",
    "version": "0.4.24+commit.e67f0147.Emscripten.clang"
  },
  "schemaVersion": "2.0.0",
  "updatedAt": "2018-11-19T16:43:27.393Z"
}