{
  "contractName": "OnChainWallet",
  "abi": [
    {
      "constant": true,
      "inputs": [
        {
          "name": "",
          "type": "uint256"
        }
      ],
      "name": "owners",
      "outputs": [
        {
          "name": "",
          "type": "address"
        }
      ],
      "payable": false,
      "stateMutability": "view",
      "type": "function"
    },
    {
      "constant": true,
      "inputs": [],
      "name": "approvementNr",
      "outputs": [
        {
          "name": "",
          "type": "int256"
        }
      ],
      "payable": false,
      "stateMutability": "view",
      "type": "function"
    },
    {
      "constant": true,
      "inputs": [],
      "name": "version",
      "outputs": [
        {
          "name": "",
          "type": "string"
        }
      ],
      "payable": false,
      "stateMutability": "view",
      "type": "function"
    },
    {
      "inputs": [
        {
          "name": "_approvementNr",
          "type": "int256"
        }
      ],
      "payable": false,
      "stateMutability": "nonpayable",
      "type": "constructor"
    },
    {
      "payable": true,
      "stateMutability": "payable",
      "type": "fallback"
    },
    {
      "constant": true,
      "inputs": [
        {
          "name": "_addressIsOwner",
          "type": "address"
        }
      ],
      "name": "isOwner",
      "outputs": [
        {
          "name": "",
          "type": "bool"
        }
      ],
      "payable": false,
      "stateMutability": "view",
      "type": "function"
    },
    {
      "constant": true,
      "inputs": [],
      "name": "balanceOf",
      "outputs": [
        {
          "name": "",
          "type": "uint256"
        }
      ],
      "payable": false,
      "stateMutability": "view",
      "type": "function"
    },
    {
      "constant": false,
      "inputs": [
        {
          "name": "newOwner",
          "type": "address"
        }
      ],
      "name": "addOwner",
      "outputs": [],
      "payable": false,
      "stateMutability": "nonpayable",
      "type": "function"
    },
    {
      "constant": false,
      "inputs": [
        {
          "name": "newOwner",
          "type": "address"
        }
      ],
      "name": "deleteOwner",
      "outputs": [],
      "payable": false,
      "stateMutability": "nonpayable",
      "type": "function"
    },
    {
      "constant": false,
      "inputs": [
        {
          "name": "_newApproverNr",
          "type": "int256"
        }
      ],
      "name": "setRequiredApproverNr",
      "outputs": [],
      "payable": false,
      "stateMutability": "nonpayable",
      "type": "function"
    },
    {
      "constant": false,
      "inputs": [],
      "name": "getRequestInfo",
      "outputs": [
        {
          "name": "toAddress",
          "type": "address"
        },
        {
          "name": "amount",
          "type": "uint256"
        },
        {
          "name": "assetType",
          "type": "string"
        },
        {
          "name": "approvementNeeded",
          "type": "int256"
        },
        {
          "name": "requestStatus",
          "type": "uint256"
        }
      ],
      "payable": false,
      "stateMutability": "nonpayable",
      "type": "function"
    },
    {
      "constant": false,
      "inputs": [
        {
          "name": "to",
          "type": "address"
        },
        {
          "name": "value",
          "type": "uint256"
        }
      ],
      "name": "transferEtherRequest",
      "outputs": [],
      "payable": false,
      "stateMutability": "nonpayable",
      "type": "function"
    },
    {
      "constant": false,
      "inputs": [],
      "name": "etherRequestApprove",
      "outputs": [],
      "payable": false,
      "stateMutability": "nonpayable",
      "type": "function"
    }
  ],
  "bytecode": "0x60806040526040805190810160405280600581526020017f302e302e31000000000000000000000000000000000000000000000000000000815250600090805190602001906200005192919062000277565b503480156200005f57600080fd5b5060405160208062001384833981018060405281019080805190602001909291905050508060018190555060023390806001815401808255809150509060018203906000526020600020016000909192909190916101000a81548173ffffffffffffffffffffffffffffffffffffffff021916908373ffffffffffffffffffffffffffffffffffffffff1602179055505060c0604051908101604052803373ffffffffffffffffffffffffffffffffffffffff168152602001600081526020016040805190810160405280600381526020017f44465400000000000000000000000000000000000000000000000000000000008152508152602001600081526020016001808111156200016e57fe5b81526020016000604051908082528060200260200182016040528015620001a45781602001602082028038833980820191505090505b50815250600360008201518160000160006101000a81548173ffffffffffffffffffffffffffffffffffffffff021916908373ffffffffffffffffffffffffffffffffffffffff16021790555060208201518160010155604082015181600201908051906020019062000219929190620002fe565b506060820151816003015560808201518160040160006101000a81548160ff021916908360018111156200024957fe5b021790555060a08201518160050190805190602001906200026c92919062000385565b509050505062000482565b828054600181600116156101000203166002900490600052602060002090601f016020900481019282601f10620002ba57805160ff1916838001178555620002eb565b82800160010185558215620002eb579182015b82811115620002ea578251825591602001919060010190620002cd565b5b509050620002fa919062000414565b5090565b828054600181600116156101000203166002900490600052602060002090601f016020900481019282601f106200034157805160ff191683800117855562000372565b8280016001018555821562000372579182015b828111156200037157825182559160200191906001019062000354565b5b50905062000381919062000414565b5090565b82805482825590600052602060002090810192821562000401579160200282015b82811115620004005782518260006101000a81548173ffffffffffffffffffffffffffffffffffffffff021916908373ffffffffffffffffffffffffffffffffffffffff16021790555091602001919060010190620003a6565b5b5090506200041091906200043c565b5090565b6200043991905b80821115620004355760008160009055506001016200041b565b5090565b90565b6200047f91905b808211156200047b57600081816101000a81549073ffffffffffffffffffffffffffffffffffffffff02191690555060010162000443565b5090565b90565b610ef280620004926000396000f3006080604052600436106100af576000357c0100000000000000000000000000000000000000000000000000000000900463ffffffff168063025e7c27146100b157806305ee40131461011e5780632b68ad881461016b5780632f54bf6e1461019657806354fd4d50146101f15780637065cb4814610281578063722713f7146102c457806374658b11146102ef5780637be4227f1461031c5780639cf8dcbe146103f4578063cd5c4c701461040b575b005b3480156100bd57600080fd5b506100dc6004803603810190808035906020019092919050505061044e565b604051808273ffffffffffffffffffffffffffffffffffffffff1673ffffffffffffffffffffffffffffffffffffffff16815260200191505060405180910390f35b34801561012a57600080fd5b50610169600480360381019080803573ffffffffffffffffffffffffffffffffffffffff1690602001909291908035906020019092919050505061048c565b005b34801561017757600080fd5b5061018061070e565b6040518082815260200191505060405180910390f35b3480156101a257600080fd5b506101d7600480360381019080803573ffffffffffffffffffffffffffffffffffffffff169060200190929190505050610714565b604051808215151515815260200191505060405180910390f35b3480156101fd57600080fd5b506102066107b7565b6040518080602001828103825283818151815260200191508051906020019080838360005b8381101561024657808201518184015260208101905061022b565b50505050905090810190601f1680156102735780820380516001836020036101000a031916815260200191505b509250505060405180910390f35b34801561028d57600080fd5b506102c2600480360381019080803573ffffffffffffffffffffffffffffffffffffffff169060200190929190505050610855565b005b3480156102d057600080fd5b506102d96108dc565b6040518082815260200191505060405180910390f35b3480156102fb57600080fd5b5061031a600480360381019080803590602001909291905050506108fb565b005b34801561032857600080fd5b50610331610932565b604051808673ffffffffffffffffffffffffffffffffffffffff1673ffffffffffffffffffffffffffffffffffffffff16815260200185815260200180602001848152602001838152602001828103825285818151815260200191508051906020019080838360005b838110156103b557808201518184015260208101905061039a565b50505050905090810190601f1680156103e25780820380516001836020036101000a031916815260200191505b50965050505050505060405180910390f35b34801561040057600080fd5b50610409610a38565b005b34801561041757600080fd5b5061044c600480360381019080803573ffffffffffffffffffffffffffffffffffffffff169060200190929190505050610b6f565b005b60028181548110151561045d57fe5b906000526020600020016000915054906101000a900473ffffffffffffffffffffffffffffffffffffffff1681565b600061049733610714565b9050600115158115151415156104a957fe5b813073ffffffffffffffffffffffffffffffffffffffff1631101515156104cf57600080fd5b600180541415610525578273ffffffffffffffffffffffffffffffffffffffff166108fc839081150290604051600060405180830381858888f1935050505015801561051f573d6000803e3d6000fd5b50610709565b60c0604051908101604052808473ffffffffffffffffffffffffffffffffffffffff1681526020018381526020016040805190810160405280600381526020017f455448000000000000000000000000000000000000000000000000000000000081525081526020016001548152602001600060018111156105a357fe5b815260200160006040519080825280602002602001820160405280156105d85781602001602082028038833980820191505090505b50815250600360008201518160000160006101000a81548173ffffffffffffffffffffffffffffffffffffffff021916908373ffffffffffffffffffffffffffffffffffffffff16021790555060208201518160010155604082015181600201908051906020019061064b929190610d54565b506060820151816003015560808201518160040160006101000a81548160ff0219169083600181111561067a57fe5b021790555060a082015181600501908051906020019061069b929190610dd4565b5090505060036005013390806001815401808255809150509060018203906000526020600020016000909192909190916101000a81548173ffffffffffffffffffffffffffffffffffffffff021916908373ffffffffffffffffffffffffffffffffffffffff160217905550505b505050565b60015481565b6000806000809150600090505b6002805490508110156107ad573373ffffffffffffffffffffffffffffffffffffffff1660028281548110151561075457fe5b9060005260206000200160009054906101000a900473ffffffffffffffffffffffffffffffffffffffff1673ffffffffffffffffffffffffffffffffffffffff1614156107a057600191505b8080600101915050610721565b8192505050919050565b60008054600181600116156101000203166002900480601f01602080910402602001604051908101604052809291908181526020018280546001816001161561010002031660029004801561084d5780601f106108225761010080835404028352916020019161084d565b820191906000526020600020905b81548152906001019060200180831161083057829003601f168201915b505050505081565b600061086033610714565b90506001151581151514151561087257fe5b60028290806001815401808255809150509060018203906000526020600020016000909192909190916101000a81548173ffffffffffffffffffffffffffffffffffffffff021916908373ffffffffffffffffffffffffffffffffffffffff160217905550505050565b60003073ffffffffffffffffffffffffffffffffffffffff1631905090565b600061090633610714565b90506001151581151514151561091857fe5b60328212151561092757600080fd5b816001819055505050565b6000806060600080600360000160009054906101000a900473ffffffffffffffffffffffffffffffffffffffff169450600360010154935060036002018054600181600116156101000203166002900480601f016020809104026020016040519081016040528092919081815260200182805460018160011615610100020316600290048015610a035780601f106109d857610100808354040283529160200191610a03565b820191906000526020600020905b8154815290600101906020018083116109e657829003601f168201915b5050505050925060038001549150600360040160009054906101000a900460ff166001811115610a2f57fe5b90509091929394565b6000610a4333610714565b905060011515811515141515610a5557fe5b60006001811115610a6257fe5b600360040160009054906101000a900460ff166001811115610a8057fe5b141515610a8c57600080fd5b610a94610cad565b15610a9e57600080fd5b600180540360038001541215610ac35760016003800154016003800181905550610b6c565b600360000160009054906101000a900473ffffffffffffffffffffffffffffffffffffffff1673ffffffffffffffffffffffffffffffffffffffff166108fc6003600101549081150290604051600060405180830381858888f19350505050158015610b33573d6000803e3d6000fd5b50600160038001540160038001819055506001600360040160006101000a81548160ff02191690836001811115610b6657fe5b02179055505b50565b6000806000610b7d33610714565b905060011515811515141515610b8f57fe5b7fffffffffffffffffffffffffffffffffffffffffffffffffffffffffffffffff9250600091505b600280549050821015610c42573373ffffffffffffffffffffffffffffffffffffffff16600283815481101515610bea57fe5b9060005260206000200160009054906101000a900473ffffffffffffffffffffffffffffffffffffffff1673ffffffffffffffffffffffffffffffffffffffff161415610c35578192505b8180600101925050610bb7565b7fffffffffffffffffffffffffffffffffffffffffffffffffffffffffffffffff831315610ca757600283815481101515610c7957fe5b9060005260206000200160006101000a81549073ffffffffffffffffffffffffffffffffffffffff02191690555b50505050565b600080600090505b600360050180549050811015610d4b573373ffffffffffffffffffffffffffffffffffffffff16600360050182815481101515610cee57fe5b9060005260206000200160009054906101000a900473ffffffffffffffffffffffffffffffffffffffff1673ffffffffffffffffffffffffffffffffffffffff161415610d3e5760019150610d50565b8080600101915050610cb5565b600091505b5090565b828054600181600116156101000203166002900490600052602060002090601f016020900481019282601f10610d9557805160ff1916838001178555610dc3565b82800160010185558215610dc3579182015b82811115610dc2578251825591602001919060010190610da7565b5b509050610dd09190610e5e565b5090565b828054828255906000526020600020908101928215610e4d579160200282015b82811115610e4c5782518260006101000a81548173ffffffffffffffffffffffffffffffffffffffff021916908373ffffffffffffffffffffffffffffffffffffffff16021790555091602001919060010190610df4565b5b509050610e5a9190610e83565b5090565b610e8091905b80821115610e7c576000816000905550600101610e64565b5090565b90565b610ec391905b80821115610ebf57600081816101000a81549073ffffffffffffffffffffffffffffffffffffffff021916905550600101610e89565b5090565b905600a165627a7a7230582012f7aa18d65c12d79013b75c76a2c79503ff811e1210385dc6e24f2e53b91fe10029",
  "source": "pragma solidity ^0.4.23;\n\ncontract OnChainWallet {\n\n    string public version = \"0.0.1\";\n    int public approvementNr;\n    address[] public owners;\n    Request request;\n\n    enum RequestStatus {PENDING, TRANSFERED}\n\n    // Ether or token transfer request\n    struct Request {\n        address toAddress;\n        uint amount;\n        string assetType;\n        int approvementNeeded;\n        RequestStatus requestStatus;\n        address[] voted;\n    }\n\n    // constructor\n    constructor(int _approvementNr){\n        approvementNr = _approvementNr;\n        owners.push(msg.sender);\n        // initializing request to default\n        request = Request(\n                msg.sender,\n                0,\n                \"DFT\",\n                0,\n                RequestStatus.TRANSFERED,\n                new address[](0)\n            );\n    }\n    \n    // MODIFIERS\n    modifier currentIsOwner() {\n        bool containsCurrent = isOwner(msg.sender);\n        assert(containsCurrent == true);\n        _;\n    }\n\n    modifier requestPending() {\n        require(request.requestStatus == RequestStatus.PENDING);\n        _;\n    }\n\n    // FALLBACK\n    function () public payable {}  \n\n    // FUNCTIONS\n    // checking if the address is an owner\n    function isOwner(address _addressIsOwner) view returns (bool){\n        bool containsCurrent = false;\n        for (uint i = 0; i < owners.length; i++ ){\n            if (owners[i] == msg.sender){\n                containsCurrent = true;\n            } \n        }\n        return containsCurrent;\n    }\n\n    // getting balance of the contract\n    function balanceOf() view returns (uint){\n        return address(this).balance;\n    }\n\n    // adding an owner account\n    function addOwner(address newOwner) currentIsOwner() {\n        owners.push(newOwner);\n    }\n\n    // deleting an owner account\n    function deleteOwner(address newOwner) currentIsOwner() {\n        int indexToDelete = -1;\n        for (uint i = 0; i < owners.length; i++ ){\n            if (owners[i] == msg.sender){\n                indexToDelete = int(i);\n            }\n        }\n        if (indexToDelete > -1) {\n            delete owners[uint(indexToDelete)];\n        }\n    }\n\n    // setting the required approvement limit\n    function setRequiredApproverNr (int _newApproverNr) currentIsOwner()  public {\n        require (_newApproverNr < 50);  \n        approvementNr = _newApproverNr;\n    }\n\n    // TRANSFERRING FUNCTIONS\n    // getting informaton regarding a request\n    function getRequestInfo() returns (address toAddress,uint amount,string assetType, int approvementNeeded, uint requestStatus) {\n        toAddress = request.toAddress;\n        amount = request.amount;\n        assetType = request.assetType;\n        approvementNeeded = request.approvementNeeded;\n        requestStatus = uint(request.requestStatus);\n    }\n\n    // start an ether transfer or a tranfer request\n    function transferEtherRequest(address to, uint value) currentIsOwner() public {\n        require(address(this).balance >= value);\n        // transfer ether\n        if (approvementNr == 1) {\n            to.transfer(value);\n        }\n        // create request\n        else {\n            request = Request(\n                to,\n                value,\n                \"ETH\",\n                approvementNr,\n                RequestStatus.PENDING,\n                new address[](0)\n            );\n            request.voted.push(msg.sender);\n        }\n    }\n\n    // adding approvement to a  request\n    function etherRequestApprove() currentIsOwner() requestPending() public {\n            if (alreadyVoted()){\n                revert();\n            }\n            if (request.approvementNeeded < approvementNr - 1) {\n                request.approvementNeeded = request.approvementNeeded + 1;\n            }\n            else {\n                request.toAddress.transfer(request.amount);\n                request.approvementNeeded =  request.approvementNeeded + 1; \n                request.requestStatus = RequestStatus.TRANSFERED;\n            }\n    }\n\n    // checking if current address areaf\n    function alreadyVoted() view internal returns (bool) {\n        for (uint i = 0; i < request.voted.length; i ++){\n            if (request.voted[i] == msg.sender ){\n                return true;\n            }\n        }\n        return false;\n    }\n\n}",
  "sourcePath": "/home/super/Eth/onchainwallet/contracts/OnChainWallet.sol",
  "compiler": {
    "name": "solc",
    "version": "0.4.24+commit.e67f0147.Emscripten.clang"
  },
  "schemaVersion": "2.0.0",
  "updatedAt": "2018-11-19T22:59:59.774Z"
}