{
  "contractName": "OnChainWallet",
  "abi": [
    {
      "constant": true,
      "inputs": [
        {
          "name": "",
          "type": "uint256"
        }
      ],
      "name": "owners",
      "outputs": [
        {
          "name": "",
          "type": "address"
        }
      ],
      "payable": false,
      "stateMutability": "view",
      "type": "function"
    },
    {
      "constant": true,
      "inputs": [],
      "name": "approvementNr",
      "outputs": [
        {
          "name": "",
          "type": "int256"
        }
      ],
      "payable": false,
      "stateMutability": "view",
      "type": "function"
    },
    {
      "constant": true,
      "inputs": [],
      "name": "version",
      "outputs": [
        {
          "name": "",
          "type": "string"
        }
      ],
      "payable": false,
      "stateMutability": "view",
      "type": "function"
    },
    {
      "inputs": [
        {
          "name": "_approveentNr",
          "type": "int256"
        }
      ],
      "payable": false,
      "stateMutability": "nonpayable",
      "type": "constructor"
    },
    {
      "constant": false,
      "inputs": [
        {
          "name": "newOwner",
          "type": "address"
        }
      ],
      "name": "addOwner",
      "outputs": [],
      "payable": false,
      "stateMutability": "nonpayable",
      "type": "function"
    },
    {
      "constant": false,
      "inputs": [
        {
          "name": "newOwner",
          "type": "address"
        }
      ],
      "name": "deleteOwner",
      "outputs": [],
      "payable": false,
      "stateMutability": "nonpayable",
      "type": "function"
    }
  ],
  "bytecode": "0x60806040526040805190810160405280600581526020017f302e302e310000000000000000000000000000000000000000000000000000008152506000908051906020019061004f9291906100f2565b5034801561005c57600080fd5b506040516020806107b1833981018060405281019080805190602001909291905050508060018190555060023390806001815401808255809150509060018203906000526020600020016000909192909190916101000a81548173ffffffffffffffffffffffffffffffffffffffff021916908373ffffffffffffffffffffffffffffffffffffffff1602179055505050610197565b828054600181600116156101000203166002900490600052602060002090601f016020900481019282601f1061013357805160ff1916838001178555610161565b82800160010185558215610161579182015b82811115610160578251825591602001919060010190610145565b5b50905061016e9190610172565b5090565b61019491905b80821115610190576000816000905550600101610178565b5090565b90565b61060b806101a66000396000f30060806040526004361061006d576000357c0100000000000000000000000000000000000000000000000000000000900463ffffffff168063025e7c27146100725780632b68ad88146100df57806354fd4d501461010a5780637065cb481461019a578063cd5c4c70146101dd575b600080fd5b34801561007e57600080fd5b5061009d60048036038101908080359060200190929190505050610220565b604051808273ffffffffffffffffffffffffffffffffffffffff1673ffffffffffffffffffffffffffffffffffffffff16815260200191505060405180910390f35b3480156100eb57600080fd5b506100f461025e565b6040518082815260200191505060405180910390f35b34801561011657600080fd5b5061011f610264565b6040518080602001828103825283818151815260200191508051906020019080838360005b8381101561015f578082015181840152602081019050610144565b50505050905090810190601f16801561018c5780820380516001836020036101000a031916815260200191505b509250505060405180910390f35b3480156101a657600080fd5b506101db600480360381019080803573ffffffffffffffffffffffffffffffffffffffff169060200190929190505050610302565b005b3480156101e957600080fd5b5061021e600480360381019080803573ffffffffffffffffffffffffffffffffffffffff169060200190929190505050610415565b005b60028181548110151561022f57fe5b906000526020600020016000915054906101000a900473ffffffffffffffffffffffffffffffffffffffff1681565b60015481565b60008054600181600116156101000203166002900480601f0160208091040260200160405190810160405280929190818152602001828054600181600116156101000203166002900480156102fa5780601f106102cf576101008083540402835291602001916102fa565b820191906000526020600020905b8154815290600101906020018083116102dd57829003601f168201915b505050505081565b60008060009150600090505b60028054905081101561039a573373ffffffffffffffffffffffffffffffffffffffff1660028281548110151561034157fe5b9060005260206000200160009054906101000a900473ffffffffffffffffffffffffffffffffffffffff1673ffffffffffffffffffffffffffffffffffffffff16141561038d57600191505b808060010191505061030e565b600115158215151415156103aa57fe5b60028390806001815401808255809150509060018203906000526020600020016000909192909190916101000a81548173ffffffffffffffffffffffffffffffffffffffff021916908373ffffffffffffffffffffffffffffffffffffffff16021790555050505050565b60008060008060009150600090505b6002805490508110156104b0573373ffffffffffffffffffffffffffffffffffffffff1660028281548110151561045757fe5b9060005260206000200160009054906101000a900473ffffffffffffffffffffffffffffffffffffffff1673ffffffffffffffffffffffffffffffffffffffff1614156104a357600191505b8080600101915050610424565b600115158215151415156104c057fe5b7fffffffffffffffffffffffffffffffffffffffffffffffffffffffffffffffff9350600092505b600280549050831015610573573373ffffffffffffffffffffffffffffffffffffffff1660028481548110151561051b57fe5b9060005260206000200160009054906101000a900473ffffffffffffffffffffffffffffffffffffffff1673ffffffffffffffffffffffffffffffffffffffff161415610566578293505b82806001019350506104e8565b7fffffffffffffffffffffffffffffffffffffffffffffffffffffffffffffffff8413156105d8576002848154811015156105aa57fe5b9060005260206000200160006101000a81549073ffffffffffffffffffffffffffffffffffffffff02191690555b50505050505600a165627a7a72305820f408248be5cc4de40db25eed12731754b70133ddb109f28304265d5dc30a11370029",
  "source": "pragma solidity ^0.4.23;\n\ncontract OnChainWallet {\n\n    string public version = \"0.0.1\";\n    int public approvementNr;\n    address[] public owners;\n\n    constructor(int _approveentNr){\n        approvementNr = _approveentNr;\n        owners.push(msg.sender);\n    }\n    \n    // MODIFIERS\n    modifier isOwner() {\n        bool containsCurrent = false;\n        for (uint i = 0; i < owners.length; i++ ){\n            if (owners[i] == msg.sender){\n                containsCurrent = true;\n            }\n        }\n        assert(containsCurrent == true);\n        _;\n    }\n\n    // FUNCTIONS\n    function addOwner(address newOwner) isOwner() {\n        owners.push(newOwner);\n    }\n\n    function deleteOwner(address newOwner) isOwner() {\n        int indexToDelete = -1;\n        for (uint i = 0; i < owners.length; i++ ){\n            if (owners[i] == msg.sender){\n                indexToDelete = int(i);\n            }\n        }\n        if (indexToDelete > -1) {\n            delete owners[uint(indexToDelete)];\n        }\n    }\n\n}",
  "sourcePath": "/home/super/Eth/onchainwallet/contracts/OnChainWallet.sol",
  "compiler": {
    "name": "solc",
    "version": "0.4.24+commit.e67f0147.Emscripten.clang"
  },
  "schemaVersion": "2.0.0",
  "updatedAt": "2018-11-19T09:42:11.233Z"
}