{
  "contractName": "OnChainWallet",
  "abi": [
    {
      "constant": true,
      "inputs": [
        {
          "name": "",
          "type": "uint256"
        }
      ],
      "name": "owners",
      "outputs": [
        {
          "name": "",
          "type": "address"
        }
      ],
      "payable": false,
      "stateMutability": "view",
      "type": "function"
    },
    {
      "constant": true,
      "inputs": [],
      "name": "approvementNr",
      "outputs": [
        {
          "name": "",
          "type": "int256"
        }
      ],
      "payable": false,
      "stateMutability": "view",
      "type": "function"
    },
    {
      "constant": true,
      "inputs": [],
      "name": "version",
      "outputs": [
        {
          "name": "",
          "type": "string"
        }
      ],
      "payable": false,
      "stateMutability": "view",
      "type": "function"
    },
    {
      "inputs": [
        {
          "name": "_approvementNr",
          "type": "int256"
        }
      ],
      "payable": false,
      "stateMutability": "nonpayable",
      "type": "constructor"
    },
    {
      "payable": true,
      "stateMutability": "payable",
      "type": "fallback"
    },
    {
      "constant": true,
      "inputs": [
        {
          "name": "_addressIsOwner",
          "type": "address"
        }
      ],
      "name": "isOwner",
      "outputs": [
        {
          "name": "",
          "type": "bool"
        }
      ],
      "payable": false,
      "stateMutability": "view",
      "type": "function"
    },
    {
      "constant": true,
      "inputs": [],
      "name": "balanceOf",
      "outputs": [
        {
          "name": "",
          "type": "uint256"
        }
      ],
      "payable": false,
      "stateMutability": "view",
      "type": "function"
    },
    {
      "constant": false,
      "inputs": [
        {
          "name": "newOwner",
          "type": "address"
        }
      ],
      "name": "addOwner",
      "outputs": [],
      "payable": false,
      "stateMutability": "nonpayable",
      "type": "function"
    },
    {
      "constant": false,
      "inputs": [
        {
          "name": "newOwner",
          "type": "address"
        }
      ],
      "name": "deleteOwner",
      "outputs": [],
      "payable": false,
      "stateMutability": "nonpayable",
      "type": "function"
    },
    {
      "constant": false,
      "inputs": [
        {
          "name": "_newApproverNr",
          "type": "int256"
        }
      ],
      "name": "setRequiredApproverNr",
      "outputs": [],
      "payable": false,
      "stateMutability": "nonpayable",
      "type": "function"
    },
    {
      "constant": true,
      "inputs": [],
      "name": "getRequestAddress",
      "outputs": [
        {
          "name": "toAddress",
          "type": "address"
        }
      ],
      "payable": false,
      "stateMutability": "view",
      "type": "function"
    },
    {
      "constant": true,
      "inputs": [],
      "name": "getRequestAmount",
      "outputs": [
        {
          "name": "amount",
          "type": "uint256"
        }
      ],
      "payable": false,
      "stateMutability": "view",
      "type": "function"
    },
    {
      "constant": true,
      "inputs": [],
      "name": "getRequestAssettype",
      "outputs": [
        {
          "name": "assetType",
          "type": "string"
        }
      ],
      "payable": false,
      "stateMutability": "view",
      "type": "function"
    },
    {
      "constant": true,
      "inputs": [],
      "name": "getRequestApprovementNeeded",
      "outputs": [
        {
          "name": "approvementNeeded",
          "type": "int256"
        }
      ],
      "payable": false,
      "stateMutability": "view",
      "type": "function"
    },
    {
      "constant": true,
      "inputs": [],
      "name": "getRequestStatus",
      "outputs": [
        {
          "name": "requestStatus",
          "type": "uint256"
        }
      ],
      "payable": false,
      "stateMutability": "view",
      "type": "function"
    },
    {
      "constant": true,
      "inputs": [],
      "name": "getRequestInfo",
      "outputs": [
        {
          "name": "toAddress",
          "type": "address"
        },
        {
          "name": "amount",
          "type": "uint256"
        },
        {
          "name": "assetType",
          "type": "string"
        },
        {
          "name": "approvementNeeded",
          "type": "int256"
        },
        {
          "name": "requestStatus",
          "type": "uint256"
        }
      ],
      "payable": false,
      "stateMutability": "view",
      "type": "function"
    },
    {
      "constant": false,
      "inputs": [
        {
          "name": "to",
          "type": "address"
        },
        {
          "name": "value",
          "type": "uint256"
        }
      ],
      "name": "transferEtherRequest",
      "outputs": [],
      "payable": false,
      "stateMutability": "nonpayable",
      "type": "function"
    },
    {
      "constant": false,
      "inputs": [],
      "name": "etherRequestApprove",
      "outputs": [],
      "payable": false,
      "stateMutability": "nonpayable",
      "type": "function"
    }
  ],
  "bytecode": "0x60806040526040805190810160405280600581526020017f302e302e31000000000000000000000000000000000000000000000000000000815250600090805190602001906200005192919062000277565b503480156200005f57600080fd5b5060405160208062001633833981018060405281019080805190602001909291905050508060018190555060023390806001815401808255809150509060018203906000526020600020016000909192909190916101000a81548173ffffffffffffffffffffffffffffffffffffffff021916908373ffffffffffffffffffffffffffffffffffffffff1602179055505060c0604051908101604052803373ffffffffffffffffffffffffffffffffffffffff168152602001600081526020016040805190810160405280600381526020017f44465400000000000000000000000000000000000000000000000000000000008152508152602001600081526020016001808111156200016e57fe5b81526020016000604051908082528060200260200182016040528015620001a45781602001602082028038833980820191505090505b50815250600360008201518160000160006101000a81548173ffffffffffffffffffffffffffffffffffffffff021916908373ffffffffffffffffffffffffffffffffffffffff16021790555060208201518160010155604082015181600201908051906020019062000219929190620002fe565b506060820151816003015560808201518160040160006101000a81548160ff021916908360018111156200024957fe5b021790555060a08201518160050190805190602001906200026c92919062000385565b509050505062000482565b828054600181600116156101000203166002900490600052602060002090601f016020900481019282601f10620002ba57805160ff1916838001178555620002eb565b82800160010185558215620002eb579182015b82811115620002ea578251825591602001919060010190620002cd565b5b509050620002fa919062000414565b5090565b828054600181600116156101000203166002900490600052602060002090601f016020900481019282601f106200034157805160ff191683800117855562000372565b8280016001018555821562000372579182015b828111156200037157825182559160200191906001019062000354565b5b50905062000381919062000414565b5090565b82805482825590600052602060002090810192821562000401579160200282015b82811115620004005782518260006101000a81548173ffffffffffffffffffffffffffffffffffffffff021916908373ffffffffffffffffffffffffffffffffffffffff16021790555091602001919060010190620003a6565b5b5090506200041091906200043c565b5090565b6200043991905b80821115620004355760008160009055506001016200041b565b5090565b90565b6200047f91905b808211156200047b57600081816101000a81549073ffffffffffffffffffffffffffffffffffffffff02191690555060010162000443565b5090565b90565b6111a180620004926000396000f3006080604052600436106100e6576000357c0100000000000000000000000000000000000000000000000000000000900463ffffffff168063025e7c27146100e857806305ee4013146101555780631ee9f4bd146101a25780632b68ad88146101f95780632f54bf6e1461022457806354fd4d501461027f5780637065cb481461030f578063722713f7146103525780637253575d1461037d57806374658b11146103a85780637be4227f146103d557806391e68fcd146104ad5780639399b98e1461053d5780639cf8dcbe14610568578063c14e48821461057f578063cd5c4c70146105aa575b005b3480156100f457600080fd5b50610113600480360381019080803590602001909291905050506105ed565b604051808273ffffffffffffffffffffffffffffffffffffffff1673ffffffffffffffffffffffffffffffffffffffff16815260200191505060405180910390f35b34801561016157600080fd5b506101a0600480360381019080803573ffffffffffffffffffffffffffffffffffffffff1690602001909291908035906020019092919050505061062b565b005b3480156101ae57600080fd5b506101b76108ad565b604051808273ffffffffffffffffffffffffffffffffffffffff1673ffffffffffffffffffffffffffffffffffffffff16815260200191505060405180910390f35b34801561020557600080fd5b5061020e6108da565b6040518082815260200191505060405180910390f35b34801561023057600080fd5b50610265600480360381019080803573ffffffffffffffffffffffffffffffffffffffff1690602001909291905050506108e0565b604051808215151515815260200191505060405180910390f35b34801561028b57600080fd5b50610294610983565b6040518080602001828103825283818151815260200191508051906020019080838360005b838110156102d45780820151818401526020810190506102b9565b50505050905090810190601f1680156103015780820380516001836020036101000a031916815260200191505b509250505060405180910390f35b34801561031b57600080fd5b50610350600480360381019080803573ffffffffffffffffffffffffffffffffffffffff169060200190929190505050610a21565b005b34801561035e57600080fd5b50610367610aa8565b6040518082815260200191505060405180910390f35b34801561038957600080fd5b50610392610ac7565b6040518082815260200191505060405180910390f35b3480156103b457600080fd5b506103d360048036038101908080359060200190929190505050610aec565b005b3480156103e157600080fd5b506103ea610b23565b604051808673ffffffffffffffffffffffffffffffffffffffff1673ffffffffffffffffffffffffffffffffffffffff16815260200185815260200180602001848152602001838152602001828103825285818151815260200191508051906020019080838360005b8381101561046e578082015181840152602081019050610453565b50505050905090810190601f16801561049b5780820380516001836020036101000a031916815260200191505b50965050505050505060405180910390f35b3480156104b957600080fd5b506104c2610c29565b6040518080602001828103825283818151815260200191508051906020019080838360005b838110156105025780820151818401526020810190506104e7565b50505050905090810190601f16801561052f5780820380516001836020036101000a031916815260200191505b509250505060405180910390f35b34801561054957600080fd5b50610552610cce565b6040518082815260200191505060405180910390f35b34801561057457600080fd5b5061057d610cdb565b005b34801561058b57600080fd5b50610594610e12565b6040518082815260200191505060405180910390f35b3480156105b657600080fd5b506105eb600480360381019080803573ffffffffffffffffffffffffffffffffffffffff169060200190929190505050610e1e565b005b6002818154811015156105fc57fe5b906000526020600020016000915054906101000a900473ffffffffffffffffffffffffffffffffffffffff1681565b6000610636336108e0565b90506001151581151514151561064857fe5b813073ffffffffffffffffffffffffffffffffffffffff16311015151561066e57600080fd5b6001805414156106c4578273ffffffffffffffffffffffffffffffffffffffff166108fc839081150290604051600060405180830381858888f193505050501580156106be573d6000803e3d6000fd5b506108a8565b60c0604051908101604052808473ffffffffffffffffffffffffffffffffffffffff1681526020018381526020016040805190810160405280600381526020017f4554480000000000000000000000000000000000000000000000000000000000815250815260200160015481526020016000600181111561074257fe5b815260200160006040519080825280602002602001820160405280156107775781602001602082028038833980820191505090505b50815250600360008201518160000160006101000a81548173ffffffffffffffffffffffffffffffffffffffff021916908373ffffffffffffffffffffffffffffffffffffffff1602179055506020820151816001015560408201518160020190805190602001906107ea929190611003565b506060820151816003015560808201518160040160006101000a81548160ff0219169083600181111561081957fe5b021790555060a082015181600501908051906020019061083a929190611083565b5090505060036005013390806001815401808255809150509060018203906000526020600020016000909192909190916101000a81548173ffffffffffffffffffffffffffffffffffffffff021916908373ffffffffffffffffffffffffffffffffffffffff160217905550505b505050565b6000600360000160009054906101000a900473ffffffffffffffffffffffffffffffffffffffff16905090565b60015481565b6000806000809150600090505b600280549050811015610979573373ffffffffffffffffffffffffffffffffffffffff1660028281548110151561092057fe5b9060005260206000200160009054906101000a900473ffffffffffffffffffffffffffffffffffffffff1673ffffffffffffffffffffffffffffffffffffffff16141561096c57600191505b80806001019150506108ed565b8192505050919050565b60008054600181600116156101000203166002900480601f016020809104026020016040519081016040528092919081815260200182805460018160011615610100020316600290048015610a195780601f106109ee57610100808354040283529160200191610a19565b820191906000526020600020905b8154815290600101906020018083116109fc57829003601f168201915b505050505081565b6000610a2c336108e0565b905060011515811515141515610a3e57fe5b60028290806001815401808255809150509060018203906000526020600020016000909192909190916101000a81548173ffffffffffffffffffffffffffffffffffffffff021916908373ffffffffffffffffffffffffffffffffffffffff160217905550505050565b60003073ffffffffffffffffffffffffffffffffffffffff1631905090565b6000600360040160009054906101000a900460ff166001811115610ae757fe5b905090565b6000610af7336108e0565b905060011515811515141515610b0957fe5b603282121515610b1857600080fd5b816001819055505050565b6000806060600080600360000160009054906101000a900473ffffffffffffffffffffffffffffffffffffffff169450600360010154935060036002018054600181600116156101000203166002900480601f016020809104026020016040519081016040528092919081815260200182805460018160011615610100020316600290048015610bf45780601f10610bc957610100808354040283529160200191610bf4565b820191906000526020600020905b815481529060010190602001808311610bd757829003601f168201915b5050505050925060038001549150600360040160009054906101000a900460ff166001811115610c2057fe5b90509091929394565b606060036002018054600181600116156101000203166002900480601f016020809104026020016040519081016040528092919081815260200182805460018160011615610100020316600290048015610cc45780601f10610c9957610100808354040283529160200191610cc4565b820191906000526020600020905b815481529060010190602001808311610ca757829003601f168201915b5050505050905090565b6000600360010154905090565b6000610ce6336108e0565b905060011515811515141515610cf857fe5b60006001811115610d0557fe5b600360040160009054906101000a900460ff166001811115610d2357fe5b141515610d2f57600080fd5b610d37610f5c565b15610d4157600080fd5b600180540360038001541215610d665760016003800154016003800181905550610e0f565b600360000160009054906101000a900473ffffffffffffffffffffffffffffffffffffffff1673ffffffffffffffffffffffffffffffffffffffff166108fc6003600101549081150290604051600060405180830381858888f19350505050158015610dd6573d6000803e3d6000fd5b50600160038001540160038001819055506001600360040160006101000a81548160ff02191690836001811115610e0957fe5b02179055505b50565b60006003800154905090565b6000806000610e2c336108e0565b905060011515811515141515610e3e57fe5b7fffffffffffffffffffffffffffffffffffffffffffffffffffffffffffffffff9250600091505b600280549050821015610ef1573373ffffffffffffffffffffffffffffffffffffffff16600283815481101515610e9957fe5b9060005260206000200160009054906101000a900473ffffffffffffffffffffffffffffffffffffffff1673ffffffffffffffffffffffffffffffffffffffff161415610ee4578192505b8180600101925050610e66565b7fffffffffffffffffffffffffffffffffffffffffffffffffffffffffffffffff831315610f5657600283815481101515610f2857fe5b9060005260206000200160006101000a81549073ffffffffffffffffffffffffffffffffffffffff02191690555b50505050565b600080600090505b600360050180549050811015610ffa573373ffffffffffffffffffffffffffffffffffffffff16600360050182815481101515610f9d57fe5b9060005260206000200160009054906101000a900473ffffffffffffffffffffffffffffffffffffffff1673ffffffffffffffffffffffffffffffffffffffff161415610fed5760019150610fff565b8080600101915050610f64565b600091505b5090565b828054600181600116156101000203166002900490600052602060002090601f016020900481019282601f1061104457805160ff1916838001178555611072565b82800160010185558215611072579182015b82811115611071578251825591602001919060010190611056565b5b50905061107f919061110d565b5090565b8280548282559060005260206000209081019282156110fc579160200282015b828111156110fb5782518260006101000a81548173ffffffffffffffffffffffffffffffffffffffff021916908373ffffffffffffffffffffffffffffffffffffffff160217905550916020019190600101906110a3565b5b5090506111099190611132565b5090565b61112f91905b8082111561112b576000816000905550600101611113565b5090565b90565b61117291905b8082111561116e57600081816101000a81549073ffffffffffffffffffffffffffffffffffffffff021916905550600101611138565b5090565b905600a165627a7a72305820728a48a61751bb6311da5e7b86509664d5ab4322e6220067913445877126fd180029",
  "source": "pragma solidity ^0.4.23;\n\ncontract OnChainWallet {\n\n    string public version = \"0.0.1\";\n    int public approvementNr;\n    address[] public owners;\n    Request request;\n\n    enum RequestStatus {PENDING, TRANSFERED}\n\n    // Ether or token transfer request\n    struct Request {\n        address toAddress;\n        uint amount;\n        string assetType;\n        int approvementNeeded;\n        RequestStatus requestStatus;\n        address[] voted;\n    }\n\n    // constructor\n    constructor(int _approvementNr){\n        approvementNr = _approvementNr;\n        owners.push(msg.sender);\n        // initializing request to default\n        request = Request(\n                msg.sender,\n                0,\n                \"DFT\",\n                0,\n                RequestStatus.TRANSFERED,\n                new address[](0)\n            );\n    }\n    \n    // MODIFIERS\n    modifier currentIsOwner() {\n        bool containsCurrent = isOwner(msg.sender);\n        assert(containsCurrent == true);\n        _;\n    }\n\n    modifier requestPending() {\n        require(request.requestStatus == RequestStatus.PENDING);\n        _;\n    }\n\n    // FALLBACK\n    function () public payable {}  \n\n    // FUNCTIONS\n    // checking if the address is an owner\n    function isOwner(address _addressIsOwner) view returns (bool){\n        bool containsCurrent = false;\n        for (uint i = 0; i < owners.length; i++ ){\n            if (owners[i] == msg.sender){\n                containsCurrent = true;\n            } \n        }\n        return containsCurrent;\n    }\n\n    // getting balance of the contract\n    function balanceOf() view returns (uint){\n        return address(this).balance;\n    }\n\n    // adding an owner account\n    function addOwner(address newOwner) currentIsOwner() {\n        owners.push(newOwner);\n    }\n\n    // deleting an owner account\n    function deleteOwner(address newOwner) currentIsOwner() {\n        int indexToDelete = -1;\n        for (uint i = 0; i < owners.length; i++ ){\n            if (owners[i] == msg.sender){\n                indexToDelete = int(i);\n            }\n        }\n        if (indexToDelete > -1) {\n            delete owners[uint(indexToDelete)];\n        }\n    }\n\n    // setting the required approvement limit\n    function setRequiredApproverNr (int _newApproverNr) currentIsOwner()  public {\n        require (_newApproverNr < 50);  \n        approvementNr = _newApproverNr;\n    }\n\n    // TRANSFERRING FUNCTIONS\n    // getting informaton regarding a request\n\n    function getRequestAddress() view public returns (address toAddress) {\n        toAddress = request.toAddress;\n    }\n\n    function getRequestAmount() view public returns (uint amount) {\n        amount = request.amount;\n    }\n\n    function getRequestAssettype() view public returns (string assetType) {\n        assetType = request.assetType;\n    }\n\n    function getRequestApprovementNeeded() view public returns (int approvementNeeded) {\n        approvementNeeded = request.approvementNeeded;\n    }\n\n    function getRequestStatus() view public returns (uint requestStatus) {\n        requestStatus = uint(request.requestStatus);\n    }\n\n    function getRequestInfo() view public returns (address toAddress,uint amount,string assetType, int approvementNeeded, uint requestStatus) {\n        toAddress = request.toAddress;\n        amount = request.amount;\n        assetType = request.assetType;\n        approvementNeeded = request.approvementNeeded;\n        requestStatus = uint(request.requestStatus);\n    }\n\n    // start an ether transfer or a tranfer request\n    function transferEtherRequest(address to, uint value) currentIsOwner() public {\n        require(address(this).balance >= value);\n        // transfer ether\n        if (approvementNr == 1) {\n            to.transfer(value);\n        }\n        // create request\n        else {\n            request = Request(\n                to,\n                value,\n                \"ETH\",\n                approvementNr,\n                RequestStatus.PENDING,\n                new address[](0)\n            );\n            request.voted.push(msg.sender);\n        }\n    }\n\n    // adding approvement to a  request\n    function etherRequestApprove() currentIsOwner() requestPending() public {\n            if (alreadyVoted()){\n                revert();\n            }\n            if (request.approvementNeeded < approvementNr - 1) {\n                request.approvementNeeded = request.approvementNeeded + 1;\n            }\n            else {\n                request.toAddress.transfer(request.amount);\n                request.approvementNeeded =  request.approvementNeeded + 1; \n                request.requestStatus = RequestStatus.TRANSFERED;\n            }\n    }\n\n    // checking if current address areaf\n    function alreadyVoted() view internal returns (bool) {\n        for (uint i = 0; i < request.voted.length; i ++){\n            if (request.voted[i] == msg.sender ){\n                return true;\n            }\n        }\n        return false;\n    }\n\n}",
  "sourcePath": "/home/super/Eth/onchainwallet/contracts/OnChainWallet.sol",
  "compiler": {
    "name": "solc",
    "version": "0.4.24+commit.e67f0147.Emscripten.clang"
  },
  "schemaVersion": "2.0.0",
  "updatedAt": "2018-11-20T11:11:11.517Z"
}