{
  "contractName": "OnChainWallet",
  "abi": [
    {
      "constant": true,
      "inputs": [
        {
          "name": "",
          "type": "uint256"
        }
      ],
      "name": "owners",
      "outputs": [
        {
          "name": "",
          "type": "address"
        }
      ],
      "payable": false,
      "stateMutability": "view",
      "type": "function"
    },
    {
      "constant": true,
      "inputs": [],
      "name": "approvementNr",
      "outputs": [
        {
          "name": "",
          "type": "int256"
        }
      ],
      "payable": false,
      "stateMutability": "view",
      "type": "function"
    },
    {
      "constant": true,
      "inputs": [],
      "name": "version",
      "outputs": [
        {
          "name": "",
          "type": "string"
        }
      ],
      "payable": false,
      "stateMutability": "view",
      "type": "function"
    },
    {
      "inputs": [
        {
          "name": "_approveentNr",
          "type": "int256"
        }
      ],
      "payable": false,
      "stateMutability": "nonpayable",
      "type": "constructor"
    },
    {
      "constant": true,
      "inputs": [
        {
          "name": "_addressIsOwner",
          "type": "address"
        }
      ],
      "name": "isOwner",
      "outputs": [
        {
          "name": "",
          "type": "bool"
        }
      ],
      "payable": false,
      "stateMutability": "view",
      "type": "function"
    },
    {
      "constant": false,
      "inputs": [
        {
          "name": "newOwner",
          "type": "address"
        }
      ],
      "name": "addOwner",
      "outputs": [],
      "payable": false,
      "stateMutability": "nonpayable",
      "type": "function"
    },
    {
      "constant": false,
      "inputs": [
        {
          "name": "newOwner",
          "type": "address"
        }
      ],
      "name": "deleteOwner",
      "outputs": [],
      "payable": false,
      "stateMutability": "nonpayable",
      "type": "function"
    }
  ],
  "bytecode": "0x60806040526040805190810160405280600581526020017f302e302e310000000000000000000000000000000000000000000000000000008152506000908051906020019061004f9291906100f2565b5034801561005c57600080fd5b506040516020806107a2833981018060405281019080805190602001909291905050508060018190555060023390806001815401808255809150509060018203906000526020600020016000909192909190916101000a81548173ffffffffffffffffffffffffffffffffffffffff021916908373ffffffffffffffffffffffffffffffffffffffff1602179055505050610197565b828054600181600116156101000203166002900490600052602060002090601f016020900481019282601f1061013357805160ff1916838001178555610161565b82800160010185558215610161579182015b82811115610160578251825591602001919060010190610145565b5b50905061016e9190610172565b5090565b61019491905b80821115610190576000816000905550600101610178565b5090565b90565b6105fc806101a66000396000f300608060405260043610610078576000357c0100000000000000000000000000000000000000000000000000000000900463ffffffff168063025e7c271461007d5780632b68ad88146100ea5780632f54bf6e1461011557806354fd4d50146101705780637065cb4814610200578063cd5c4c7014610243575b600080fd5b34801561008957600080fd5b506100a860048036038101908080359060200190929190505050610286565b604051808273ffffffffffffffffffffffffffffffffffffffff1673ffffffffffffffffffffffffffffffffffffffff16815260200191505060405180910390f35b3480156100f657600080fd5b506100ff6102c4565b6040518082815260200191505060405180910390f35b34801561012157600080fd5b50610156600480360381019080803573ffffffffffffffffffffffffffffffffffffffff1690602001909291905050506102ca565b604051808215151515815260200191505060405180910390f35b34801561017c57600080fd5b5061018561036d565b6040518080602001828103825283818151815260200191508051906020019080838360005b838110156101c55780820151818401526020810190506101aa565b50505050905090810190601f1680156101f25780820380516001836020036101000a031916815260200191505b509250505060405180910390f35b34801561020c57600080fd5b50610241600480360381019080803573ffffffffffffffffffffffffffffffffffffffff16906020019092919050505061040b565b005b34801561024f57600080fd5b50610284600480360381019080803573ffffffffffffffffffffffffffffffffffffffff169060200190929190505050610492565b005b60028181548110151561029557fe5b906000526020600020016000915054906101000a900473ffffffffffffffffffffffffffffffffffffffff1681565b60015481565b6000806000809150600090505b600280549050811015610363573373ffffffffffffffffffffffffffffffffffffffff1660028281548110151561030a57fe5b9060005260206000200160009054906101000a900473ffffffffffffffffffffffffffffffffffffffff1673ffffffffffffffffffffffffffffffffffffffff16141561035657600191505b80806001019150506102d7565b8192505050919050565b60008054600181600116156101000203166002900480601f0160208091040260200160405190810160405280929190818152602001828054600181600116156101000203166002900480156104035780601f106103d857610100808354040283529160200191610403565b820191906000526020600020905b8154815290600101906020018083116103e657829003601f168201915b505050505081565b6000610416336102ca565b90506001151581151514151561042857fe5b60028290806001815401808255809150509060018203906000526020600020016000909192909190916101000a81548173ffffffffffffffffffffffffffffffffffffffff021916908373ffffffffffffffffffffffffffffffffffffffff160217905550505050565b60008060006104a0336102ca565b9050600115158115151415156104b257fe5b7fffffffffffffffffffffffffffffffffffffffffffffffffffffffffffffffff9250600091505b600280549050821015610565573373ffffffffffffffffffffffffffffffffffffffff1660028381548110151561050d57fe5b9060005260206000200160009054906101000a900473ffffffffffffffffffffffffffffffffffffffff1673ffffffffffffffffffffffffffffffffffffffff161415610558578192505b81806001019250506104da565b7fffffffffffffffffffffffffffffffffffffffffffffffffffffffffffffffff8313156105ca5760028381548110151561059c57fe5b9060005260206000200160006101000a81549073ffffffffffffffffffffffffffffffffffffffff02191690555b505050505600a165627a7a72305820f7584a8f95bf84ba9147ae60b747223c9b6c6038e5af076abfcd0f09c48199310029",
  "source": "pragma solidity ^0.4.23;\n\ncontract OnChainWallet {\n\n    string public version = \"0.0.1\";\n    int public approvementNr;\n    address[] public owners;\n\n    constructor(int _approveentNr){\n        approvementNr = _approveentNr;\n        owners.push(msg.sender);\n    }\n    \n    // MODIFIERS\n    modifier currentIsOwner() {\n        bool containsCurrent = isOwner(msg.sender);\n        assert(containsCurrent == true);\n        _;\n    }\n\n    // FUNCTIONS\n    function isOwner(address _addressIsOwner) view returns (bool){\n        bool containsCurrent = false;\n        for (uint i = 0; i < owners.length; i++ ){\n            if (owners[i] == msg.sender){\n                containsCurrent = true;\n            } \n        }\n        return containsCurrent;\n    }\n\n\n    function addOwner(address newOwner) currentIsOwner() {\n        owners.push(newOwner);\n    }\n\n    function deleteOwner(address newOwner) currentIsOwner() {\n        int indexToDelete = -1;\n        for (uint i = 0; i < owners.length; i++ ){\n            if (owners[i] == msg.sender){\n                indexToDelete = int(i);\n            }\n        }\n        if (indexToDelete > -1) {\n            delete owners[uint(indexToDelete)];\n        }\n    }\n\n}",
  "sourcePath": "/home/super/Eth/onchainwallet/contracts/OnChainWallet.sol",
  "compiler": {
    "name": "solc",
    "version": "0.4.24+commit.e67f0147.Emscripten.clang"
  },
  "schemaVersion": "2.0.0",
  "updatedAt": "2018-11-19T10:12:39.864Z"
}